:020000040800F2
:10000000A0A50020DD0100083DCE000831880008D1
:10001000799700089D360008697401080000000007
:100020000000000000000000000000004501000882
:10003000EF3A00080000000089010008A96D0108DE
:10004000F7010008F7010008F7010008F7010008B0
:10005000F7010008F7010008F7010008F7010008A0
:10006000F7010008F7010008F7010008953A0008B9
:10007000F7010008F7010008F7010008A13A00089D
:10008000AD3A0008F7010008A5110008F7010008C3
:10009000F7010008F7010008F7010008F701000860
:1000A000F7010008A56E0108F7010008F701000834
:1000B000F7010008BD6E0108C96E0108F7010008CC
:1000C000F7010008F7010008F7010008F701000830
:1000D000F7010008B5730108CD730108E573010845
:1000E000F7010008F7010008F7010008F701000810
:1000F000F7010008F7010008F7010008F701000800
:10010000F7010008F7010008F7010008F7010008EF
:100110007970010891700108F7010008F7010008E3
:10012000F7010008F7010008B93A0008F7010008D4
:10013000DFF80CD000F0C6FD0048004761800108E0
:10014000A0A50020224B19680868B0E8F00F80F3E2
:100150000988BFF36F8F4FF0000080F311884EF0D5
:100160000D0E70470000000006480068006880F32C
:10017000088862B661B6BFF34F8FBFF36F8F00DFA1
:1001800000BF00BF08ED00E0EFF30980BFF36F8F01
:100190000F4B1A6820E9F00F106008B54FF05000BF
:1001A00080F31188BFF34F8FBFF36F8F19F03EF9C3
:1001B0004FF0000080F31188BDE808401968086816
:1001C000B0E8F00F80F30988BFF36F8F704700BF6E
:1001D000A0020020EFF3058070470000064880472A
:1001E00006480047FEE7FEE7FEE7FEE7FEE7FEE71C
:1001F000FEE7FEE7FEE7FEE75D6E0108310100085D
:10020000202A04DB203A21FA02F00021704721FA6B
:1002100002F3D040C2F120029140084319467047D2
:1002200040EA01039B0703D009E008C9121F08C078
:10023000042AFAD203E011F8013B00F8013B521EF8
:10024000F9D27047D2B201E000F8012B491EFBD26F
:1002500070470022F6E710B513460A4604461946D1
:10026000FFF7F0FF204610BD30B505462A460B4685
:1002700012F8010B13F8014B08B1A042F8D01CB1E1
:10028000002802D06D1CF1E7284630BD421C10F852
:10029000011B0029FBD1801A704730B504460020AD
:1002A000034600E05B1C934203D2E05CCD5C401B44
:1002B000F8D030BD70B50F4D00B92868002412E0A9
:1002C0000A4602E09E4203D0521C1378002BF9D15B
:1002D000DAB2224305D02BB124B1002100F8011B72
:1002E00004E00446401C0678002EE9D12860204630
:1002F00070BD0000E804002070B5064617F0D4F980
:10030000046805460A220021304600F0DFFB2C601D
:1003100070BDF0B480EA0102D40F4200B2EB410F8D
:1003200002D20246084611464A0042D0C30DDDB251
:10033000C1F3C752AD1A202D35DAC1F3160141F4CD
:10034000000204B15242C5F1200602FA06F12A4128
:100350001044B3EBD05F23D0C4B1012DA0EBC35048
:1003600009DCF0BC4FF0004202EAC352DBB200F5F8
:10037000000000F0ECBB400000F1807000EBC350C7
:10038000A0F1807040EAD170490009E0490841EAD3
:10039000C071A0EBC35000F50000400800EBC35053
:1003A000F0BC00F0CBBB6142012202EB4101001B1B
:1003B000F6E7F0BC704781F00041AAE780F000400A
:1003C000A7E780EA010210B502F00043400022D006
:1003D0004A001FD0010E01EB1261C0F35600C2F3B8
:1003E000560240F4000042F40002A0FB0220000488
:1003F0007F39140400D0401C50EA124001D4400060
:10040000491EC2B20C0604EBD010401C4008802AE2
:1004100002D003E0002010BD20F00100002900DA26
:100420000020184310BD30B480EA010202F00045FC
:1004300030F0004221F0004013D090B1C30DD40D34
:10044000C2F31601C0F31600E41A41F4000140F4AF
:1004500000027D34914201D3641C00E04900002C6D
:1004600002DA30BC002070474FF4000000239142B4
:1004700001D3891A034340084FEA4101F7D151B132
:10048000914202D14FF0004105E002D24FF001014C
:1004900001E06FF0010103EBC450284430BC00F0D0
:1004A0004DBB2DE9FE4F804681EA0300C00F0C468C
:1004B000009021F0004123F00045B8EB0200A94173
:1004C00005D24046214690461C460B46024623F084
:1004D0000040104347D0270DC7F30A00C3F30A5169
:1004E0000290401A019040286BDAC3F3130040F4E5
:1004F000801B0098924620B10023D2EB030A63EBE5
:100500000B0B01985946C0F14002504600F06FFABB
:1005100006460D4650465946019A00F077FA10EB10
:1005200008006141002487EA115284EAE7731A4304
:1005300040D0009A62B3019A012A4FEA075215DCB3
:10054000001B61EB02014FF0004202EA0752CDE9C5
:100550000042001C41F5801132462B4600F034FB6E
:1005600003B0BDE8F08F40462146F9E7001B61EB80
:100570000201001C41F5801300185B412018A2F510
:10058000001747EB030140EAD570B6196D4111E041
:100590006D084FEA360645EAC0754FEA0752001B60
:1005A00061EB0201001C41F5801149084FEA30005F
:1005B0000019514132462B4603B0BDE8F04F00F020
:1005C000F4BA0098012240000023D0EB020263EB52
:1005D000E073009821464FEAE074B8EB000061EB4D
:1005E0000401E9E783F000435BE781F0004158E74D
:1005F0002DE9FE4F81EA030404F0004421F000419C
:1006000000944FF0000B23F0004350EA01045ED049
:1006100052EA03045BD0C3F30A54C1F30A552C44D5
:10062000A4F2F3340194A0FB0254C1F3130141F48A
:100630008011C3F3130343F4801301FB024400FB56
:10064000034E840A970A44EA815447EA8357A4FB7D
:10065000076802958D0A05FB07854FEA932C04FB7A
:100660000C542705029D4FEA065847EA1637B5EBAA
:1006700008056EEB070C870E920E47EA811742EAD7
:100680008312A7FB0201B6EB0B0164EB00042B0DF8
:1006900043EA0C335E1844EB1C50DA465146E7FB44
:1006A0000201C5F313044FEA0B3343EA14534FEA34
:1006B0000432019C43EA0603A4F10C040294009C5A
:1006C000CDE900B400F080FA03B0BDE8F08F00205F
:1006D0000146F9E72DE9F04D81EA030404F0004BEF
:1006E00021F0004514464FF0000A23F0004150EA83
:1006F000050220D054EA01021DD0C5F30A57024674
:10070000C5F31303C1F31300C1F30A5640F4801577
:1007100043F48013A7EB0608101BD64608F2FD38F9
:1007200073EB050002D308F1010801E092185B4168
:10073000B8F1000F03DA00200146BDE8F08D00207B
:100740004FF48011064684460EE0171B73EB050735
:1007500005D3121B63EB050306434CEA010C490861
:100760004FEA300092185B4150EA0107EDD152EA9E
:10077000030012D082EA040083EA0501084305D091
:10078000101BAB4106D20122002306E000224FF0ED
:10079000004302E06FF0010253101AEB06004CEB2D
:1007A000085110EB0A0041EB0B01BDE8F04D00F0E1
:1007B000FCB970B521F0004303430CD0C1F30A55D6
:1007C0000024D5EB040564EB0403D617AD1AB3413E
:1007D00002DB0020014670BD201841EB025170BDC4
:1007E000C10F80EAE0700844CA079623002100F098
:1007F000AEB996230022114600F0A9B90EB5C10F7B
:1008000080EAE0700844CA07002140F233438DE8D3
:100810000E000A460B4600F0D7F903B000BD0EB536
:1008200040F2334102910021CDE900110A460B4606
:1008300000F0CAF903B000BD00F0004220F0004013
:10084000C10DC0F3160040F400007F2901DA00203A
:100850007047962903DCC1F19601C84001E0963942
:100860008840002AF4D04042704770B5C1F30A5264
:1008700001F000450024C1F3130140F2FF3341F4BD
:1008800080119A4201DA002070BD40F233439A424F
:10089000A2F2334203DC5242FFF7B2FC00E0904088
:1008A0002C43F1D0404270BD00F0004230F00040D7
:1008B0000AD0C10D01F56071C0F3160042EA015182
:1008C000C2084007114370470020014670470000EE
:1008D00030B5041E71F1000404DB4FF000444042C7
:1008E00064EB0101141E73F1000405DB1C464FF09C
:1008F0000043524263EB04038B4208BF824230BD87
:1009000001F0004330B421F0004150EA010206D06A
:100910000A0DA2F56072C1F31301002A02DC30BC9B
:1009200000207047440F44EAC104C100E01830BC05
:1009300000EBC25000F002B9002801DBC0F100401A
:10094000002901DBC1F1004181427047002801DB31
:10095000C0F10040002901DBC1F10041884270472D
:1009600030B50B46014600202022012409E021FA7F
:1009700002F59D4205D303FA02F5491B04FA02F57C
:100980002844151EA2F10102F1DC30BD2DE9F05F13
:100990000546002092469B468846064681464024EE
:1009A0001BE02846414647462246FFF729FC5346AE
:1009B0005A46C01A914110D311461846224600F0FB
:1009C00016F82D1A67EB01084F4622460120002138
:1009D00000F00DF817EB00094E41201EA4F10104B0
:1009E000DFDC484631462A464346BDE8F09F202AD0
:1009F00004DB203A00FA02F1002070479140C2F176
:100A0000200320FA03F3194390407047202A06DBA5
:100A1000CB17203A41FA02F043EAE07306E041FACC
:100A200002F3D040C2F120029140084319467047BA
:100A30000FB4002300B589B00CA900910B996FF099
:100A40000042CB601E4B06931E4B07930423CDE957
:100A500001321D4A089202466B46002000F0D2F98E
:100A600009B05DF814FB70B586B006464FF0FF3054
:100A70000091CDE90101002015460C460490324654
:100A8000694604A8FFF7D4FF03460498211825B14E
:100A900008B10A4600E022462A6000280DD0002B4B
:100AA00002DD0098884208D0081B0094CDE90104BB
:100AB0003246694604A8FFF7BBFF06B070BD0000D0
:100AC0003D1000085B100008F10C00082DE9F0470C
:100AD00091460F4680460446002614F8015B2DB16E
:100AE00000F002F90068405DC007F6D12B2D02D05E
:100AF0002D2D18D0641E4A463946204600F0BEFA15
:100B000027B13968A14201D1C7F8008071054FF0C3
:100B100002040BD54042002803DD16F0C5FD046039
:100B2000A007BDE8F08746F48066E4E70028F8DA1D
:100B300016F0BAFD04606FF00040F2E70029A8BF8C
:100B40007047401C490008BF20F00100704710B4F6
:100B5000B0FA80FC00FA0CF050EA010404BF10BCAB
:100B6000704749B1CCF1200421FA04F411FA0CF1D8
:100B700018BF012121430843A3EB0C01CB1D4FEA11
:100B800000614FEA102042BF002010BC704700EB0C
:100B9000C35010440029A4BF10BC7047401C49003A
:100BA00008BF20F0010010BC704710B5141E73F18F
:100BB000000408DA401C41F1000192185B411A431D
:100BC00001D120F0010010BD2DE9F04D92469B4669
:100BD00011B1B1FA81F202E0B0FA80F2203290460F
:100BE000FFF705FF04460F4640EA0A0041EA0B0101
:100BF00053465A46084313D0114653EA010019D010
:100C0000C8F140025046FFF7FBFA05460E46504633
:100C100059464246FFF7EBFE084305D0012004E0A9
:100C200020463946BDE8F08D0020054346EAE076CF
:100C30002C4337430A986305E40AA0EB080000221E
:100C4000FD0A44EA47540A3002D500200146E9E78C
:100C5000010510196941DDE9084500196941BDE840
:100C6000F04DA2E7C1F30A52C1F3130140F2FF3382
:100C700041F480119A4202DA00200146704740F2A6
:100C800033439A42A2F2334202DC5242FFF7B8BA2F
:100C9000FFF7ADBE30B5041E71F1000404DB4FF068
:100CA0000044404264EB0101141E73F1000405DBB3
:100CB0001C464FF00043524263EB0403994208BFC5
:100CC000904230BD064C074D06E0E06840F001035D
:100CD00094E8070098471034AC42F6D3FFF72CFA9B
:100CE00018A6010838A6010800487047A09D010811
:100CF00010B50446FFF7F8FF0068005D00F0010042
:100D000010BD00002DE9FF4F087881B09946FF28FB
:100D100005D0491C2D2804D00024002308E000231E
:100D20000BE00124F9E703EB830300EB4303491CC9
:100D30000878FF28F7D104B15B42002000901478B6
:100D400001462D2C01D02B2C04D1521C2D2C12D05D
:100D50000024009400251678FF2E0ED00A24A0FB54
:100D600004C801FB0481002700FB0711521C16EB8D
:100D70000C006941EFE70124EBE7994450EA0102D6
:100D80000ED00024AA4D2646DFF8A88200F0D3F941
:100D900082468B46B9F1000009DAC9F100071BE071
:100DA00001980021C0E9001105B0BDE8F08F0746A9
:100DB00012E0F80707D022462B4630464146FFF79F
:100DC00017FC0646884622462B4610461946FFF772
:100DD0000FFC04460D467F10002FEAD1B9F1000F39
:100DE000324643465046594602DAFFF773FC01E0AB
:100DF000FFF7FEFB009A0AB181F00041019AC2E9B7
:100E00000001D1E72DE9FF4F1F468DB0D7E901461C
:100E10004FF0FF382E2045464FF000090B90B9697E
:100E20006D1C0E988847396A824688470028F6D19B
:100E3000BAF1FF3F0AD024F4D064002E11DDBAF1DC
:100E40002B0F08D0BAF12D0F0BD102E0404611B0A4
:100E5000ABE744F48064B9696D1C0E9888478246FC
:100E6000761E6946600501D52D2000E02B208DF807
:100E7000000001F1010B0DF1200809E0B9696D1CBA
:100E80000E98884782460F9844F40074761E0560D9
:100E9000002E02DDBAF1300FF0D00B998A453ED119
:100EA00044F0800406E00F99681CA9F1010944F49C
:100EB00000740860B9696D1C761E0E9888478246DA
:100EC0003028F0D02BE00B998A4505D1200603D4B9
:100ED00044F08004761E18E0504616F0B7FC08B3C4
:100EE0000DF11301761E44F400748B4508D2AAF16B
:100EF00030000BF8010B200607D5A9F1010003E033
:100F0000200602D409F101008146A00502D50F99FF
:100F1000681C0860B9696D1C0E9888478246002ECF
:100F2000D1DC53E0002E51DDBAF1650F02D0BAF1E9
:100F3000450F4BD1A00549D5B9696D1C24F4407407
:100F4000761E0E9888478246002E0CDD2B2804D092
:100F5000BAF12D0F07D144F48074B9696D1C0E9855
:100F600088478246761EE00501D52D2100E02B2121
:100F700008F8011BCDF82C8021E00DF12901761E27
:100F800044F4007488450CD2AAF1300010F0FF0040
:100F900088F8000002D10B99884509D908F10108A9
:100FA00006E0E00501D5244801E042F20F708146D9
:100FB000B9696D1C0E98884782460F980560002E0F
:100FC00004DD504616F042FC0028D6D1F9690E988F
:100FD0008847FF208BF8000088F80000002006906A
:100FE00007904B466A4608A906A8FFF78BFEA005A6
:100FF00002D46FF001002AE714F0240F0AD0E007B2
:1010000014D1DDE906123868031D3B600068C0E9B1
:1010100000120BE0DDE90601FFF772FC0146E00774
:1010200004D13868021D3A600068016028460EE766
:10103000000024400000F03FF1D8FFFF426842B1B9
:10104000016811F8013B23B1521EC0E90012184695
:1010500070470121C160881E704742685AB1C36859
:10106000016843B983688B4205D0491E521CC0E910
:101070000012002070474FF0FF3070472DE9F05FFD
:1010800082460078002715468B460AF10104B946CE
:10109000302801D09DB113E014F8010B0127782806
:1010A00003D0582801D045B10AE00DB1102D07D169
:1010B0000027102514F8010B02E0082500E00A259E
:1010C0000026B0460EE005FB080005FB06F10127EF
:1010D00001EB10461FFA80F8B6F5803F00D3B94601
:1010E00014F8010B294600F018F80028EBDABBF1E0
:1010F000000F05D00FB1641E00E05446CBF800404D
:10110000B9F1000F06D016F0CFFA02210160C81E17
:10111000BDE8F09F48EA0640FAE73A2800D23038A6
:1011200020F02002412A01D3A2F13700884201D3E6
:101130004FF0FF3070470EB540F23342029200226A
:10114000CDE900221346FFF73FFD03B000BD70B5A7
:101150008C1810F8015B15F0070301D110F8013B62
:101160002A1106D110F8012B03E010F8016B01F8E9
:10117000016B5B1EF9D12B0705D40023521E0DD441
:1011800001F8013BFAE710F8013BCB1A921C03E08F
:1011900013F8015B01F8015B521EF9D5A142D8D3C7
:1011A000002070BD014805F0E4B80000740600207E
:1011B00070B5044600688168C943C9071CD18168BD
:1011C00021F00101816005F02FFE05460FE000BF10
:1011D00005F02AFE401B022809D9A06A40F0100041
:1011E000A062E06A40F00100E062012070BD20686A
:1011F0008068C043C007EBD0002070BD10B5014629
:10120000406A826A12F0500F05D0006A026BBDE896
:10121000104008461047816A41F4007181620168FC
:101220008968C1F3424107290CD1017B51B9816A18
:1012300021F480718162816AC90403D4816A41F01A
:101240000101816205F092F810BD10B5406A816A13
:1012500041F040018162C16A41F00401C16205F0C0
:1012600087F810BD10B5406A05F081F810BD000088
:10127000F8B500260446009600688168C943C9078E
:1012800028D0816841F0010181601348134900684A
:10129000B0FBF1F000E0401E00900028FBD105F00B
:1012A000C3FD054611E000BF05F0BEFD401B02284E
:1012B0000BD9A06A40F01000A062E06A40F0010083
:1012C000E06284F824600120F8BD20688068C04393
:1012D000C007E9D10020F8BD9C02002040420F0069
:1012E00070B505464FF4807421460948FEF7B1FFFA
:1012F00021462846FEF7ADFF22460021044803F0B0
:101300001BF8224602492846FEF78AFF002070BDDE
:101310007C8A002070B505464FF480742146094848
:10132000FEF797FF224629460648FEF779FF224638
:101330000021044803F036F8642005F05DFC00202D
:1013400070BD00007C8900202DE9F04FD1B0074628
:1013500034216846FEF77DFFF84D05F1800495F8CD
:10136000300000287ED10221F54805F053FD28B356
:10137000E87D042877D0E87D0328FBD0E87D0028AD
:1013800072D0E87D012870D0E87D02286ED0E87D1B
:101390000628EFD000210122084607F029FE684602
:1013A00007F01CFEE87D06287ED0E86E64287CD01D
:1013B000C8287BD0B0F5967F79D0B6E1E148017AB4
:1013C000E148002974D0DF494C3191F90710B9B1D7
:1013D00001296ED002296DD0E87D04286CD0E87D0B
:1013E0000328FBD0E87D002867D0E87D012874D071
:1013F000E87D0228CED1D5A1684616F01FF9C9E7CD
:101400004178E1B1E87D042810D0E87D03280DD0B3
:10141000E87D06280AD0E87D58B1E87D01280BD088
:10142000E87D0228B6D1CEA1E268FBE0D2A1E26855
:10143000F8E0D7A1E268F5E0DBA1E268F2E090F91C
:101440000200F8B10128A5D1E87D04283ED0E87D4E
:1014500003283BD0E87D062838D0E87D58B3E87DE6
:10146000012804E0CDE2EDE2EEE2EFE2F0E23CD072
:10147000E87D02288ED12068FFF716FA0B46024657
:10148000CFA152E0E87D04281AD0E87D032817D0C8
:10149000E87D062814D0E87DA0B1E87D012813D0AE
:1014A000E87D0228ABD109E0A8E2D3E2D4E2D5E29C
:1014B000C5E021E09AE011E0BBE0BCE020680CE16F
:1014C000206810E1206883E0206887E02068FFF74B
:1014D000EBF90B460246C1A127E0AEE02068FFF71A
:1014E000E3F90B460246C4A11FE02068FFF7DCF9D0
:1014F0000B460246C7A118E0417879B3E87D04287D
:1015000017D0E87D032814D0E87D062811D0E87DA7
:10151000B0B1E87D01281AD0E87D022893D1606C33
:10152000FFF7C2F90B460246C1A1684616F086F8DD
:1015300030E7606CFFF7B8F90B460246C3A1F4E749
:10154000606CFFF7B1F90B460246C7A1EDE7606C8E
:10155000FFF7AAF90B460246CAA1E6E7FFE790F9B2
:10156000020068B10128E3D1E87D04281FD0E87D9E
:1015700003281CD0E87D062819D0E87D38B30AE09E
:10158000E87D042813D0E87D032810D0E87D0628E4
:101590000DD0E87D88B1E87D012814D0E87D0228CF
:1015A000C6D1606CFFF780F902460B461CE0606C08
:1015B000FFF77AF902460B4607E0606CFFF774F913
:1015C0000B46024608E0606C08E0B5A1ADE7606C30
:1015D000FFF76AF902460B46B7A1A6E7FFF764F9E1
:1015E0000B460246BAA1A0E7BFA19EE7E97D564897
:1015F000C01D042910D0E97D03290DD0E97D0629FD
:101600000AD0E97D59B1E97D01290FD0E97D022990
:101610008ED1B0F9022026E0B0F9022026E0B0F920
:10162000022026E0684616F009F8B3E6B0F9022079
:1016300022E0B3A1E0E6B7A1DEE6BBA1DCE641789B
:10164000E1B1E87D042810D0E87D03280DD0E87DC5
:1016500006280AD0E87D58B1E87D01280BD0E87D46
:101660000228E2D1A268B5A1DCE7A268B9A1D9E756
:10167000A268BEA1D6E7A268C2A1D3E790F9020092
:10168000C8B10128D1D1E87D042835D0E87D0328F0
:1016900032D0E87D06282FD0E87DA0B3E87D012870
:1016A00039D0E87D0228C0D16068FFF7FDF80B460D
:1016B0000246BAA139E7E87D042813D0E87D032863
:1016C00010D0E87D06280DD0E87D88B1E87D01289E
:1016D00010D0E87D0228A8D16068FFF7E5F80B4636
:1016E000024681E76068FFF7DFF80B4602466CE7C9
:1016F00060686DE7606871E76068FFF7D5F80B46D2
:101700000246ACA111E7FFE76068FFF7CDF80B4692
:101710000246AEA109E76068FFF7C6F80B4602462D
:10172000B0A102E7684615F089FF00221146104675
:1017300007F05EFC684607F051FC62E1840000207F
:1017400000140140E40500208901002046696C6C0A
:1017500065642020202020202064452020202000B7
:1017600046696C6C656420202020202020202564A0
:101770002046202020200000202020202020202083
:10178000202020202020256420462020202000002A
:1017900046696C6C696E672020202020202025641B
:1017A00020462020202000005265616479202020FE
:1017B00020202020202025642046202020200000FA
:1017C00046696C6C65642020202020202020252E76
:1017D0003066204320202020000000002020202010
:1017E00020202020202020202020252E306620436D
:1017F000202020200000000046696C6C696E672084
:10180000202020202020252E30662043202020204C
:1018100000000000526561647920202020202020F3
:101820002020252E306620432020202000000000AC
:1018300046696C6C65642020202020202020252E05
:10184000306620462020202000000000202020209C
:1018500020202020202020202020252E30662046F9
:10186000202020200000000046696C6C696E672013
:10187000202020202020252E3066204620202020D9
:101880000000000052656164792020202020202083
:101890002020252E30662046202020200000000039
:1018A00020202020202020202020202020252E3114
:1018B000662043202020200046696C6C696E6720FA
:1018C0002020202020252E316620432020202000AB
:1018D00052656164792020202020202020252E318F
:1018E000662043202020200046696C6C656420201F
:1018F0002020202020252E3166204320202020007B
:10190000202020202020202020202020206445206E
:101910002020200046696C6C696E67202020202002
:101920002064452020202000526561647920202019
:1019300020202020206445202020200046696C6C57
:10194000656420202020202020256420462020209F
:1019500020000000202020202020202020202020E7
:1019600020256420462020202000000046696C6C61
:10197000696E67202020202020256420462020201A
:101980002000000052656164792020202020202062
:1019900020256420462020202000000046696C6C31
:1019A000656420202020202020252E306620432022
:1019B0002020200020202020202020202020202047
:1019C00020252E30662043202020200046696C6CA4
:1019D000696E67202020202020252E30662043209D
:1019E00020202000526561647920202020202020C2
:1019F00020252E306620432020202000E87D062868
:101A00002ED04FF07C51E164E87DA24600240428EA
:101A100028D0E87DAB46012503287DD0E248C07D73
:101A2000E24E002879D0E04FF87D052801F040858E
:101A3000F87D012801F06885F87D022801F0C9854C
:101A400001F01EBEDAA1D7E4E0A1D5E4E6A1D3E41B
:101A5000ECA1D1E4F2A165E6F8A163E6FEA161E69E
:101A6000D3A15FE6022007F041FB642005F0C4F833
:101A7000012007F03BFB642005F0BEF8DFF82C8363
:101A8000DFF8F0A3DFF8F0934FF0663BA8F1A6086B
:101A9000B5F85E00FEF7C3FE06460F46B8F8000034
:101AA00042F210714843FEF7BAFE5A465346FEF71B
:101AB0009FFD32463B46FEF70DFE00224B46FEF7E9
:101AC00009FEFEF71DFF06466867B5F85200FEF7EF
:101AD00090FE3146FEF730FF0DD8B5F8540005F002
:101AE0008BF8022007F002FB0320E8756C67B5F85D
:101AF000620001F06BBD95F82E00052876D3AB4946
:101B0000B8F80200AA31098988426BD3022007F095
:101B1000EDFA302125A801E07CE042E2FEF799FBD6
:101B200030210DA8FEF795FB302119A8FEF791FB97
:101B3000D2A125A815F082FDD2A10DA815F07EFD39
:101B4000D4A119A815F07AFDD74806F084F8D74E2D
:101B50004FF4004700210122084607F049FA01200E
:101B600007F099FA00221146104607F041FA0120C9
:101B700007F091FA642005F03FF8002101220846A1
:101B800007F036FA25A807F029FA012211460020AD
:101B900007F02EFA0DA807F021FA00221146104690
:101BA00007F026FA19A807F019FA4FF4FA7005F0B1
:101BB00023F83946304605F02DF90028CAD1002215
:101BC0001146104607F014FA012007F064FA0021CC
:101BD0000122084607F00CFA012007F05CFA012008
:101BE00007F084FA85F82E4052E7FFE76F49B8F80E
:101BF0000220AA3109898A4206D3401C85F82E00AA
:101C0000642004F0F9FF43E785F82E40012007F037
:101C10006DFA3DE7C8210DA8FEF71BFBDFF88C81AC
:101C200000273E460DF13409A8F1A6080120B8F8B6
:101C3000001029F817107F1CBFB204F0DDFF642FDD
:101C4000F4D100221146484601E000210DE000EBEE
:101C5000410730F911C0B7F902309C4503DDA7F800
:101C600002C020F81130491C89B2C2F163038B42D3
:101C7000EDDC521C92B2632AE7D3142130F9112013
:101C8000491C89B216445029F8D33C2096FBF0F049
:101C900042F6F8214843BBF85E1041F2941290FBE3
:101CA000F1F080B2A0F57A715E46ABF85C0091422B
:101CB00078D87D4805F0CFFFDFF8BCB1C1467C483D
:101CC00005F0B8FFB6F85E00FEF7A9FD07468846A6
:101CD000B9F8000042F210714843FEF7A0FD4FF042
:101CE0006632644BFEF784FC43463A46FEF7F2FC4C
:101CF00000225B46FEF7EEFCFEF702FE706728212D
:101D00003FA8FEF7A6FAF07E70B9012007F0EEF9C1
:101D100040F2DC5004F070FF022007F0E7F965485C
:101D2000716F81423FDCF576DAF86000012814DB40
:101D300000221146104607F05BF9012007F0ABF9CD
:101D400000210122084607F053F9012007F0A3F90A
:101D5000F4760420F07501F0EDBB57A13FA815F013
:101D60006DFC00210122084607F042F93FA807F068
:101D700035F956A13FA815F061FC0122114600205B
:101D800007F036F93FA807F029F955A13FA815F04B
:101D900055FC00221146104607F02AF93FA807F02B
:101DA0001DF9A7E0C1E0DFE0840000209A050020D3
:101DB0002020202020202020202020202020202023
:101DC00020202020202020200000000046696C6C8C
:101DD000696E672020202020202020202020202025
:101DE000202020200000000052656164792020201E
:101DF00020202020202020202020202020202020E3
:101E00000000000046696C6C6564202020202020C2
:101E10002020202020202020202020200000000042
:101E2000536D616C6C202020202020202020202059
:101E30002020202020202020000000004D69642068
:101E40002020202020202020202020202020202092
:101E500020202020000000004C61726765202020B7
:101E60002020202020202020202020202020202072
:101E70000000000066660A40000008404572722DAE
:101E8000303500004C69667420546F72717565209E
:101E9000457272005072657373204C20746F20522B
:101EA0006573657400000000900700200014014075
:101EB000D00700200000C8424552522D3032202069
:101EC0002020202020202020200000004E6F2042D3
:101ED00075636B65742020202020202020000000E6
:101EE0005072657373204C20746F20526573657453
:101EF00020000000FE4805F0AEFE4FF4FA7004F03A
:101F00007BFE00221146104607F072F8012007F010
:101F1000C2F800210122084607F06AF8012007F004
:101F2000BAF8642004F068FEC9E6B0F57A7F1ED2E4
:101F3000EF4805F090FE28213FA8FEF78AF996F8B1
:101F4000270058B9012007F0D1F840F2DC5004F026
:101F500053FE022007F0CAF886F8275086F827407B
:101F60000420F075A6F85C4051B0BDE8F08FF07E1B
:101F700096F82710084312D000221146104607F0A9
:101F800037F8012007F087F800210122084607F002
:101F90002FF8012007F07FF8F47686F82740F475D3
:101FA000E2E7D34805F057FE012F04D0022F73D08B
:101FB000032F72D0FAE3A0210DA8FEF74AF94FF0E3
:101FC000000B5F46CDF834B1CDF83CB152E3C949BE
:101FD00001F2671004F0ACF8CAF85000062808D9DE
:101FE000C44E213E96F83D00012802D000287DD045
:101FF0000CE3C0482138B0F86000FEF7FAFB3990D6
:10200000BC482138B0F85C00FEF7F3FB3590B8F817
:102010001400FEF7EEFB064699F81700FEF7E9FB01
:10202000DAF84C10FEF7CDF93146FEF7CAF9B2499D
:10203000FEF7F9F93599FEF76CF93999FEF7BBF916
:10204000AC492139496FFEF781FC3DD8A94E213EAC
:1020500096F82D0005282BD3A848B9F80410C2889B
:102060008A422FD3B9F81810A1F54070E73806D08E
:1020700096F83E0090B186F83E40002011E0002026
:1020800002F018F9B9F81A004FF47A71484304F0D5
:10209000B3FD86F82D4015E005E3FDE386F83E50DC
:1020A000012002F007F9B6F8640004F0A5FD09E08C
:1020B0009249CA88B9F804108A4203D3401C86F8B2
:1020C0002D0001E086F82D408C480DAE018826F8E1
:1020D0001B100BF101001FFA80FB012004F08CFDA6
:1020E000BBF1500F7AD10021084602E06BE10020DD
:1020F0000DE006EB400336F910C0B3F90220944519
:1021000003DDA3F802C026F81020401C80B2C1F104
:102110004F028242EDDC491C89B24F29E7D31420DB
:1021200036F91010401C80B20F443C28F8D3282008
:1021300097FBF0F06F4E42F6F821213E4843B6F887
:102140005E105C3690FBF1F0FEF74AFB8346B0610F
:102150000027A0210DA8FEF77CF899F81700B8F821
:10216000141048436421B0FBF1F136F8040B01442C
:1021700036F86009081AFEF733FB5946FEF7E6FB0E
:102180007AD25C49203101F5A77003F0D1FFC0B2CB
:1021900086F83F0099F80F204946002A96F840201B
:1021A000A0EB02000CD00A8B904241DB96F83E2057
:1021B000F2B386F8415086F83F4086F83E4084E00E
:1021C000B9F8181088420ADB96F83E1039B186F843
:1021D000415086F83F4086F83E400DE0C0E0B9F837
:1021E0001A10884208DB96F83E0028B986F841505C
:1021F00086F83F4086F83E503E482138B0F86000EF
:102200004042FEF7FBFA3C903A4839912138B0F849
:102210005C00FEF704FB83463791B8F81400FEF724
:10222000FEFA0646884699F81700FEF7F8FA00E02D
:102230003FE0334A334BFEF7DBF943463246FEF7C5
:10224000D7F90022304BFEF745FA5A46379BFEF786
:1022500028F9399B3C9AFEF724F90646254888461A
:102260002138406FFEF720FB32464346FEF730FB35
:1022700005D8204E213E4FE06EE0012050E01D4980
:10228000123101F2631003F053FF1A4ECAF85C00DA
:10229000213E5BE002F00EF836F8580F04F0ACFC7B
:1022A000022002F007F8708804F0A6FC06F81B5C18
:1022B0003CE04A8B904208DB96F83E0028B986F84D
:1022C000415086F83F4086F83E50C87C99F8171078
:1022D0004843B8F81410484342F2107190FBF1F0F3
:1022E000B6F85C100844B6F86010401A0EE0000022
:1022F00090070020A50000200000C842F404002040
:10230000295C8FC2F528EC3F00005940FEF768FABF
:10231000716FFEF71BFB11D896F83E000028ACD178
:1023200001F0C8FFB6F8640004F066FCDAF85C005F
:102330000A2813D3FE490520C875F8E3FC49333158
:1023400001F5B57003F0F4FECAF85C0096F83E00A3
:1023500000289FD001209DE70520F0754FF0000B6D
:102360004FF40071F34804F055FD012819D13021D4
:1023700035A8FDF76EFFF0A135A815F05FF94FF411
:102380000041F14804F046FD60B199F80E000028C4
:1023900007D001221146002006F02AFE35A806F0DB
:1023A0001DFE33E100221146104606F021FE0120F9
:1023B00006F071FE00210122084606F019FE0120F8
:1023C00006F069FE22E1022001F074FF86F8415018
:1023D00086F83E504FF40071D64804F01BFD0128EA
:1023E000DAF860001DD001287DDB0022114610467E
:1023F00006F0FEFD012006F04EFE002101220846F7
:1024000006F0F6FD012006F046FED048CAF860400E
:1024100005F021FCC648642180F8215080F8224054
:10242000B5E3012850DB00221146104606F0E0FD1E
:10243000012006F030FE00210122084606F0D8FDFA
:10244000012006F028FEC148CAF8604005F003FCF0
:1024500086F8215086F822406420F06600204F90D4
:10246000012006F043FE00BFB6F85E00FEF7D7F984
:102470008046B748894642F2107100884843FEF70B
:10248000CEF94FF06632B34BFEF7B2F842464B46F8
:10249000FEF720F90022B04BFEF71CF9FEF730FAE8
:1024A00080467067B6F85200FEF7A3F94146FEF782
:1024B00043FAD9D836F8540F04F09EFB022006F0F8
:1024C00015FE3462F0899FE04F98E8B399F80E004A
:1024D000D8B3022001F0EEFE302135A8FDF7B9FE99
:1024E000302141A800E047E0FDF7B3FE002211468D
:1024F000104606F07DFD012006F0CDFD00210122F1
:10250000084606F075FD012006F0C5FD642004F0C4
:1025100073FB92A135A815F091F892A141A815F08E
:102520008DF800210122084606F062FD35A806F06C
:1025300055FD01221146002006F05AFD41A806F083
:102540004DFD8EA135A801E009E05FE015F076F8B9
:1025500000221146104606F04BFD35A850E0012040
:1025600006F0C4FD40F6CA0004F046FB022006F067
:10257000BDFD01204F9079E04D98E8B3022001F0B5
:1025800099FE14213FA8FDF764FE282135A8FDF728
:1025900060FE00221146104606F02AFD012006F0DA
:1025A0007AFD00210122084606F022FD012006F0F6
:1025B00072FD642004F020FB75A13FA815F03EF8E1
:1025C00075A135A815F03AF800210122084606F059
:1025D0000FFD3FA806F002FD01221146002006F083
:1025E00007FD35A806F0FAFC64A13FA815F026F80F
:1025F00000221146104600E02CE006F0F9FC3FA84E
:1026000006F0ECFC4FF4FA7004F0F6FA484EB6F817
:102610005C00FEF7EEF8716FFDF7D0FECAF85400CB
:10262000DAF86400FA2825DB00210122084606F0CA
:10263000DFFC012006F02FFD00221146104606F0B7
:10264000D7FC012006F027FD39480621C17580F826
:10265000215072E6012006F049FD40F6CA0004F060
:10266000CBFA022006F042FD01204D90374805F0DC
:10267000E1FACBE7DFF82C912D4EA9F1AA0899F8E1
:102680001710B8F8140041436420B1FBF0F036F89D
:102690005C1F0844B188401AFEF7A2F8B169FEF742
:1026A00055F9D6D293E4A0210DA8FDF7D2FD4FF045
:1026B000000B5F46CDF80CB1CDF808B165E31C49BD
:1026C000213101F2831003F033FDCAF850000628CF
:1026D00007D9174E96F83D00012802D0002866D091
:1026E00044E31348B0F86000FEF783F837901048D1
:1026F000B0F85C00FEF77DF83590B8F81400FEF7EE
:1027000078F8064699F81600FEF773F8DAF84C10D8
:10271000FDF757FE3146FDF754FE2349FDF783FED2
:102720003599FDF7F6FD3799FDF745FE00493FE085
:102730008400002000180140303441204C6F772085
:1027400050726F647563000000140140D0070020D0
:10275000F404002066660A40000008404572722DAD
:10276000303441004C6F772050726F647563742071
:1027700041646420466F6F6400000000507265730E
:1027800073204C20746F20436F6E74696E75650002
:102790004572722D30344200467279204272696768
:1027A00064650000440600200000C842FEE3BFE16B
:1027B000496FFEF7CBF83DD8F74E96F82D00052867
:1027C00029D3F648B9F80420C188914230D3B9F82A
:1027D0001810A1F54070E73806D096F83E0080B199
:1027E00086F83E4000200FE0002001F063FDB9F8BC
:1027F0001A004FF47A71484304F0FEF986F82D4030
:1028000016E086F83E50012001F054FDB6F8640051
:1028100004F0F2F90CE0E149CA88B9F804108A42E0
:1028200006D3401C86F82D00022001F043FD01E094
:1028300086F82D40D9480DAE018826F81B100BF103
:1028400001001FFA80FB012004F0D6F9BBF1500F04
:102850007BD10021084601E000200DE006EB40039B
:1028600036F910C0B3F90220944503DDA3F802C085
:1028700026F81020401C80B2C1F14F028242EDDCEC
:10288000491C89B24F29E7D35FF0140036F91010C4
:10289000401C0F4480B200E09FE23C28F6D3282081
:1028A00097FBF0F0BC4E42F6F8214843B6F85E10B4
:1028B0005C3690FBF1F0FDF793FF8346B061002793
:1028C000A0210DA8FDF7C5FC99F81600B8F8141062
:1028D00048436421B0FBF1F136F8040B014436F8AB
:1028E0006009081AFDF77CFF5946FEF72FF876D2EB
:1028F000A949413101F5B57003F01AFCC0B286F860
:102900003F0099F80F204946002A96F84020A0EB96
:1029100002000CD00A8B904240DB96F83E20EAB3CE
:1029200086F8415086F83F4086F83E4086E0B9F888
:10293000181088420ADB96F83E1039B186F84150EB
:1029400086F83F4086F83E400DE0BDE0B9F81A1029
:10295000884208DB96F83E0028B986F8415086F890
:102960003F4086F83E508C48B0F860004042FDF78A
:1029700045FFCDE93B108848B0F85C00FDF74FFFFC
:1029800083463991B8F81400FDF749FF064688469A
:1029900099F81600FDF743FF814A00E042E0814BC1
:1029A000FDF726FE43463246FDF722FE00227E4B0F
:1029B000FDF790FE5A46399BFDF773FDDDE93B328A
:1029C000FDF76FFD064674488846406FFDF76CFFC3
:1029D00032464346FDF77CFF04D86F4E45E06FE07A
:1029E000012046E06C49333101F27F1003F0A0FB77
:1029F000694ECAF85C0096F83E0000B1012001F073
:102A000059FCB6F864003E3604F0F6F8708B04F01A
:102A1000F3F8022001F04EFCB08B04F0EDF806F85C
:102A2000015C47E04A8B904208DB96F83E0028B9EB
:102A300086F8415086F83F4086F83E50887C99F8E9
:102A400016104843B8F81410484342F2107190FB36
:102A5000F1F0B6F85C100844B6F86010401AFDF7C3
:102A6000BFFE716FFDF772FF0AD896F83E0000288E
:102A7000B6D101F01FFCB6F8640004F0BDF819E00F
:102A80004549333101F5C37003F052FBCAF85C00CD
:102A900096F83E0000B1012001F00CFC36F8580F0A
:102AA00004F0AAF8022001F005FC708804F0A4F8F4
:102AB00006F81B5CDAF85C000A28BFF43BAC01E0C6
:102AC0000521F1754FF0000B4FF40071374804F009
:102AD000A1F9012850D1302135A8FDF7BAFBAFF29A
:102AE000A83135A814F0AAFD4FF40041304804F095
:102AF00091F958B199F80E00F0B301221146002067
:102B000006F076FA35A806F069FA2FE100221146A0
:102B1000104606F06DFA012006F0BDFA00210122F0
:102B2000084606F065FA012006F0B5FA1EE1B5E1A7
:102B3000022001F0BFFB86F8415086F83E504FF46A
:102B400000711A4804F066F90128DAF8600033D001
:102B500001287CDB00221146104606F049FA0120CC
:102B600006F099FA00210122084606F041FA0120F8
:102B700006F091FA0F4800E0AAE0CAF8604005F0BC
:102B80006AF80548C82180F8215080F82240C166C3
:102B90000421C17582E1000084000020F4040020BB
:102BA0007B14AE47E17AEC3F000059400018014029
:102BB00000140140D0070020012851DB00221146FB
:102BC000104606F015FA012006F065FA00210122F0
:102BD000084606F00DFA012006F05DFAF948CAF839
:102BE000604005F038F886F8215086F82240C82069
:102BF000F06600204290012006F078FAB6F85E00F8
:102C0000FDF70DFE8046F048894642F210710088BB
:102C10004843FDF704FE4FF06632EC4BFDF7E8FC4D
:102C200042464B46FDF756FD0022E94BFDF752FDAB
:102C3000FDF766FE80467067B6F85200FDF7D9FDD5
:102C40004146FDF779FED9D836F8540F00E040E050
:102C500003F0D2FF022006F049FA3462F08983E0E3
:102C6000429840B399F80E0090B3022001F022FB85
:102C7000302135A8FDF7EDFA302145A8FDF7E9FA36
:102C800000221146104606F0B3F9012006F003FABF
:102C900000210122084606F0ABF9012006F0FBF9FD
:102CA000642003F0A9FFAFF24C5135A814F0C6FC24
:102CB000AFF2505134E0012006F018FA40F6CA0095
:102CC00003F09AFF022006F011FA0120429080E002
:102CD0004CE04398F0B3022001F0ECFA142135A83F
:102CE000FDF7B7FA282145A8FDF7B3FA00221146EF
:102CF000104606F07DF9012006F0CDF900210122F1
:102D0000084606F075F9012006F0C5F9642003F0C5
:102D100073FFAFF2845135A814F090FCAFF28851E4
:102D200045A814F08BFC00210122084606F060F94A
:102D300035A806F053F901221146002006F058F993
:102D400045A806F04BF9AFF2CC5135A814F076FC4B
:102D5000002200E032E01146104606F049F935A89D
:102D600006F03CF94FF4FA7003F046FF994EB6F8BE
:102D70005C00FDF73EFD716FFDF720FBCAF85400C3
:102D8000DAF86400FA28BFF64FACDFF84C92914EA7
:102D9000A9F1AA0899F81600B8F81410484364215C
:102DA000B0FBF1F036F85C1F0144B088081AFDF75B
:102DB00017FDB169FDF7CAFD70D280E4012006F06D
:102DC00095F9FA2003F018FF022006F08FF9012090
:102DD00043907C4804F02EFFC8E7A0210DA8FDF722
:102DE00038FA4FF0000B5F46CDF834B1CDF83CB166
:102DF00031E37849213101F29F1003F099F9CAF8C3
:102E00005000062806D9734E96F83D00012801D0DF
:102E1000B0B311E3DFF8BC9109F15C06B9F86000CA
:102E2000FDF7E7FC35903088FDF7E3FC3790B8F804
:102E30001400FDF7DEFCDAF84C10FDF7C2FA379902
:102E4000FDF767FA3599FDF7B6FAB169FDF77EFD32
:102E500040D899F82D004E4605282CD35A48C188F1
:102E60005D488288914223D3018BA1F54070E738F9
:102E700007D096F83E0090B186F83E40002011E061
:102E800099E1002001F016FA53484FF47A71408B13
:102E9000484303F0B1FE86F82D4009E0ECE286F8E5
:102EA0003E50012001F006FAB6F8640003F0A4FEDB
:102EB00086F82D400EE04449CA88474989888A42ED
:102EC00006D3401C89F82D00022001F0F3F901E03F
:102ED00089F82D403C480DAE018826F81B100BF1F7
:102EE00001001FFA80FB012003F086FEBBF1500FAA
:102EF00067D10021084601E000200DE006EB400309
:102F000036F910C0B3F90220944503DDA3F802C0DE
:102F100026F81020401C80B2C1F14F028242EDDC45
:102F2000491C89B24F29E7D35FF0140036F910101D
:102F3000401C80B20F443C28F8D3282097FBF0F0C7
:102F400042F6F8214843B9F85E1090FBF1F0FDF726
:102F500047FC8346C9F874000027A0210DA8FDF79F
:102F600078F9B8F81410B9F85C0046460144B9F88D
:102F70006000081AFDF734FC5946FDF7E7FC7AD2E9
:102F80001449413101F5C37003F0D2F81249C0B2BF
:102F900089F83F00CA7BC846002A99F84020A0EB78
:102FA00002000A8B1AD0904241DB00E067E298F8F9
:102FB0003E20E2B388F8415088F83F4088F83E4010
:102FC00082E0C5E0D0070020F404002066660A40D5
:102FD000000008408400002044060020904209DBE5
:102FE00098F83E2032B188F8415088F83F4089F87F
:102FF0003E400BE0498B884208DB98F83E0028B938
:1030000088F8415088F83F4089F83E50FE48B0F8B3
:1030100060004042FDF7F2FB8346FB483991B0F86F
:103020005C00FDF7FCFB80468946B08A00E03FE08B
:10303000FDF7F5FBF54AF64BFDF7DAFA42464B464B
:10304000FDF72FFA5A46399BFDF72BFA0646EE4854
:103050008846406FFDF728FC43463246FDF738FCB2
:103060000AD8E94E96F83E0000B1012001F022F99D
:10307000B6F8640043E066E0E349333101F29B10A7
:1030800003F056F8E04ECAF85C0096F83E0000B136
:10309000012001F00FF936F8580F03F0ADFD0220C2
:1030A00001F008F9708803F0A7FD06F81B5C44E006
:1030B0004A8B904208DB98F83E0028B988F84150C6
:1030C00088F83F4088F83E50487CB18A48436421E4
:1030D000B0FBF1F0B8F85C100844B8F86010401A82
:1030E000FDF77EFBD8F87410FDF730FC0AD898F88D
:1030F0003E0000B1012001F0DDF8B8F8640003F0F3
:103100007BFD1AE0C049333101F5D17003F010F8AE
:10311000CAF85C0098F83E0000B1012001F0CAF83E
:10312000B8F8580003F068FD022001F0C3F8B8F8C1
:103130005A0003F061FD88F83D50DAF85C000A2877
:10314000BFF4F8A802E0052089F817004FF0000B43
:103150004FF40071AF4803F05DFE01284FD13021DC
:1031600035A8FDF776F8AFF6302135A814F066FAE9
:103170004FF40041A84803F04DFE58B1A748807BAA
:10318000E8B301221146002005F032FF35A805F012
:1031900025FF51E100221146104605F029FF0120CC
:1031A00005F079FF00210122084605F021FF0120EA
:1031B00005F071FF40E1022001F07CF886F84150F3
:1031C00086F83E504FF40071924803F023FE012828
:1031D000DAF8600020D0012872DB00221146104688
:1031E00005F006FF012005F056FF002101220846E8
:1031F00005F0FEFE012005F04EFF894800E0A2E048
:10320000CAF8604004F027FD7F484FF4967180F8BB
:10321000215080F82240BAE4012852DB00221146F6
:10322000104605F0E5FE012005F035FF00210122E2
:10323000084605F0DDFE012005F02DFF7848CAF8AC
:10324000604004F008FD86F8215086F822404FF4D3
:103250009670F06600204F90012005F047FF00BFF8
:10326000B6F85E00FDF7DBFA80466E48894642F20A
:10327000107100884843FDF7D2FA4FF066326A4B6E
:10328000FDF7B6F942464B46FDF724FA0022674B9C
:10329000FDF720FAFDF734FB80467067B6F8520060
:1032A000FDF7A7FA4146FDF747FBD9D836F8540F8A
:1032B00003F0A2FC022005F019FF3462F089B9E0A6
:1032C00058E04F98F0B35548807BE0B3022000F0FF
:1032D000F1FF302135A8FCF7BCFF302141A8FCF7F5
:1032E000B8FF00221146104605F082FE012005F0CD
:1032F000D2FE00210122084605F07AFE012005F0E9
:10330000CAFE642003F078FCAFF6B03135A814F0A3
:1033100095F9AFF6B03141A814F090F900210122DF
:10332000084605F065FE35A805F058FE0122114655
:10333000002005F05DFE41A805F050FEAFF6C43157
:1033400035A801E009E077E014F078F90022114691
:10335000104605F04DFE35A853E0012005F0C6FEED
:1033600040F6CA0003F048FC022005F0BFFE012031
:103370004F9099E04D98E8B3022000F09BFF142194
:103380003FA8FCF766FF282135A8FCF762FF002262
:103390001146104605F02CFE012005F07CFE0021B0
:1033A0000122084605F024FE012005F074FE642089
:1033B00003F022FCAFF628413FA814F03FF9AFF626
:1033C000284135A814F03AF900210122084605F0F9
:1033D0000FFE3FA805F002FE01221146002005F075
:1033E00007FE35A805F0FAFDAFF670413FA814F0CE
:1033F00025F900E04CE000221146104605F0F8FDEA
:103400003FA805F0EBFD13E084000020CDCCCCCC30
:10341000CCCCEC3F001801400014014044060020D1
:10342000D0070020F404002066660A40000008402F
:103430004FF4FA7003F0E0FB934EB6F85C00FDF732
:10344000D8F9716FFCF7BAFFCAF85400DAF86400D3
:10345000FA28BFF6E9A8DFF834828B4EB8F81400DA
:1034600036F85C1F0844B188401AFDF7B9F9B16914
:10347000FDF76CFAFFF4BDAC022000F01BFF8248A0
:1034800080F83350857480F83D40CAF85C40F7E01E
:10349000012005F02BFE40F6CA0003F0ADFB022030
:1034A00005F024FE01204D90794804F0C3FBC3E7EA
:1034B00087F821504FF47A7003F09EFB012005F04D
:1034C00015FEB7F8500003F097FB022005F00EFE42
:1034D000F86E642810D0C82812D07089401C708102
:1034E0007088401C7080FD756A48223704F0A2FB8A
:1034F000FD777C773D77C3E0F088401CF080EFE7F4
:103500003089401C3081EBE7614804F093FB624E48
:103510004FF48071304603F07DFC88B187F8344069
:10352000022000F097FE0220F875FC77B7F84E00F5
:1035300003F062FB564804F08EFB51B0BDE8F08FFB
:1035400097F8340038B98021304603F063FC20B38B
:1035500097F8340000B3DAF874005646401CCAF8F5
:103560007400DAF85810884207DA4848A63881888B
:1035700000F5A870C088814227D3002000F06AFEC1
:103580004FF4487014F068FE022000F063FE87F8E4
:103590003440746787F82A5072E03C48AA3040896A
:1035A0000A3803F029FB8021304603F033FC002861
:1035B000C3D1012000F04EFE87F83450386F401C14
:1035C0003867F87F401CF877C5E7642003F014FBE8
:1035D00056E0002000F03EFE396F2C48491CA6380A
:1035E000396700F5A8788288B8F80610B9468A428B
:1035F00013D300278346642003F0FEFABBF80410BF
:10360000B8F80600814201D37F1CFFB20A2FF2D323
:10361000F089401CF08189F82B504E46322003F08F
:10362000EBFA002000F016FE322003F0E5FA306FCE
:10363000401C306796F820108842EFD9022000F035
:1036400009FE154F8021384603F0E4FB70B1B8F84D
:103650000C0003F0D1FA8021384603F0DBFB002890
:103660003FF46BAF04203467F075B574A6F85C4086
:1036700006F8304F7470B470CAF874400DF0B8FB9F
:1036800013F024F959E70000840000209A05002077
:10369000D00700209007002000180140FEE710B579
:1036A0000446392016F074F9E0B216F08FF9C4F32D
:1036B000072016F08BF9C4F3074016F087F9200EA7
:1036C00016F084F9BDE8104013F096BF70B50646B9
:1036D00014460D463A2016F05BF9E8B216F076F97A
:1036E000280A16F073F90CB100200FE013F084FFE4
:1036F0001D280DD1304600F0B7F805463B2016F0E6
:1037000047F92E44002CF1D0208828442080EDE792
:1037100070BD70B5064614460D463C2016F038F9CB
:10372000E8B216F053F9280A16F050F90CB100204F
:103730000FE013F061FF1E280DD1304600F0E9F8CC
:1037400005463D2016F024F92E44002CF1D02088A7
:1037500028442080EDE770BD10B50FF0E7FD08B1FB
:1037600000F07AF8BDE81040302000F09CB831201D
:1037700000F099B80146362000F08AB810B508B1BB
:1037800000F0AEF8BDE81040342000F08CB870B501
:10379000054600F08FF804000DD00146284600F0E1
:1037A00032F8412807D0142803D0422800D1B32092
:1037B00070BD432070BD2819BDE87040FFF7DEBF23
:1037C00010B560B1012101E0491CC9B2425C5C2A1C
:1037D0000AD02F2A08D0002AF6D100F081F8BDE8DF
:1037E0001040352000F05FB800F033F81428F6D010
:1037F0004128F4D010BD10B500F072F8BDE81040BB
:10380000322000F050B870B5054600200E46012465
:1038100001E0641CE4B2295D5C2913D02F2911D08A
:103820000029F6D100242844FFF7E5FF002C08D03A
:10383000B44206D041280AD0142806D0422800D12C
:10384000B32070BD641CE4B2EDE7432070BD204698
:10385000E1E7FF21FFF7D7BF10B5222016F098F857
:10386000BDE8104015F092BF70B50546272016F050
:103870008FF815F08BFF0400264607D015F086FF61
:10388000641E05F8010B14F0FF04F7D1304670BD3B
:1038900010B50C4616F07CF8204616F097F8BDE8F7
:1038A000104013F0A9BE10B516F072F8BDE8104034
:1038B00013F0A2BE014600E0491C0A78002AFBD1A1
:1038C00006E000BF11F8012D5C2A03D02F2A01D099
:1038D0008142F7D1814200D0491C081AC0B270471A
:1038E00070B505462F2016F053F82C7806E000BF7F
:1038F00015F8014F5C2C07D02F2C05D0204616F070
:1039000065F8002CF4D170BDBDE87040002016F0C1
:103910005DB870B505462D2016F03AF815F036FF63
:103920000400264607D0287816F050F8641E6D1C57
:1039300014F0FF04F7D1304670BD0000044B4FF483
:10394000005118B10122184603F069BA0022FAE7C3
:10395000000C0140044B4FF4805118B1012218466D
:1039600003F05DBA0022FAE7000C0140044B4FF46B
:10397000806118B10122184603F051BA0022FAE71B
:103980000014014010B50024062016F001F865204F
:1039900016F01CF815F0FAFE01469A280CD009A082
:1039A00013F03CFE214611A013F038FE641CE4B273
:1039B000052CE9D3002010BD024614A013F02EFE02
:1039C000142010BD4348333736D3EB53544D3332B4
:1039D000CDA8D1B6CAA7B0DCA3A1B7B5BBD8D6B520
:1039E000CEAAA3BA25580D0A00000000D5FDD4DAEE
:1039F000BDF8D0D0B5DA20256420B4CECDA8D1B69C
:103A0000D6D8CAD4A1A30D0A000000000D0A43486D
:103A1000333736D3EB53544D33D0BEC6ACD5FDB39C
:103A2000A3A3A1BDD3CAD5CAFDBEDDCEAAA3BA2524
:103A300023582020636861723A2025630D0A000034
:103A400010B50B4C208820F004002080800707D59B
:103A5000FFF782FE1428208804D020F47E70208096
:103A6000002010BD40F004002080142010BD000094
:103A7000E2040020064B4FF48061012805D00028A5
:103A800005D10022184603F0CAB90122FAE77047AF
:103A900000080140014802F015BF0000A406002004
:103AA000014802F00FBF0000EC2D0020014802F099
:103AB00009BF0000302E0020014802F003BF0000C3
:103AC000A82D002030B590F840500124AC40C56BC3
:103AD0006C60046863604368102B036803D09960CE
:103AE0000068C26030BD9A600068C16030BD704738
:103AF0002DE9F84FFB480126FB4C028940894FF421
:103B00008971DF2A02D9884202D30CE0884208D2A8
:103B100094F82800002804D184F82860607D401CB7
:103B20006075BDE8F88FF14DE17BDFF8C4B395F91E
:103B30000900A5F16C0A50EA01020BF107074FF0EA
:103B4000000804D0002801D0002967D0C6E1B9469A
:103B5000B7F90200FCF744FEE34F00908037F868A5
:103B6000FCF73EFEDAF81410FCF7D3FB0099FCF7E3
:103B7000E3FE02D294F82500B8B1B9F90200FCF7CF
:103B80002FFE8146F868FCF72BFEDAF81410FCF7DC
:103B9000C0FB4946FCF7DAFE02D294F82500E0B3F8
:103BA00094F8250001287CD098E1CF490A3101F52D
:103BB000A37002F0BDFA786295F906108142C5D86B
:103BC000607F78B966779BF8011009B1F86806E064
:103BD0009BF802000028386803D0FCF72DFEFCF7A4
:103BE000FFFD786495F90100012834D090B30020DE
:103BF00000F098F90020FFF73DFF012013F0C0FC12
:103C000099F9050095F906100844796AC0EB00108F
:103C1000B1EB800F9AD9002001E029E066E000F0C6
:103C200081F90020FFF726FF002013F0A9FC95F989
:103C3000081099F90500084495F906100844796AB6
:103C4000C0EB0010B1EB800FAED9A6726E7284F893
:103C5000256043E104E0012000F064F9012003E065
:103C6000012000F05FF90020FFF704FF0020C5E706
:103C700095F90100E0B101284FF000001CD013F0CD
:103C80007FFC00BF84F825609AA013F00BFC84F839
:103C90001D800020FFF7EEFE002000F043F9002019
:103CA00000E00CE013F06CFC98A013F0FBFB15E1B6
:103CB000002000F037F9E5E7FFF7DCFEE2E78A498C
:103CC000183101F23F1002F033FAB86395F9081089
:103CD000C1EB0111B0EB810FBBD926766E7284F86F
:103CE000246084F825806672A672F7E07E49093167
:103CF00001F2551002F01CFADFF8EC9109F180098D
:103D0000C9F8200097F90410C1EB4112C2EB012160
:103D1000B0EB011F27D9B7F90200FCF761FD009055
:103D2000D9F80C00FCF75CFDDAF81410FCF7F1FA96
:103D30000099FCF701FE02D294F82600A0B1B7F971
:103D40000200FCF74DFD0746D9F80C00FCF748FDD2
:103D5000DAF81410FCF7DDFA3946FCF7F7FD02D269
:103D600094F82600E8B398E095F90600BA46C0EB4F
:103D70000010810097F904004F46C0EB4012C2EBDF
:103D8000002001EB0010D9F8201088427ED8607F17
:103D900078B966779BF8011009B1F86806E09BF8DE
:103DA00002000028386803D0FCF746FDFCF718FD38
:103DB000786495F90100012844D0E8B3002000F0B0
:103DC000B1F80020FFF756FE5FF0010013F0D8FBBA
:103DD0009AF9051095F906201144C1EB01118900EB
:103DE00000E03CE09AF90400C0EB4012C2EB002076
:103DF00001EB0010396A88424FD2002000F092F89F
:103E00000020FFF737FE002013F0BAFB95F90810E9
:103E10009AF905209AF90400114495F906201144F5
:103E2000C1EB0111C0EB40128900C2EB002001EB95
:103E30000010396A884200E009E02ED26E7284F8E0
:103E4000266036E0012000F06DF8012003E001203B
:103E500000F068F80020FFF70DFE0020B6E795F9A6
:103E60000100F8B101284FF000001FD013F088FBCB
:103E700020A013F017FB84F81D8084F82660002032
:103E8000FFF7F8FD002000F04DF800E026E00020EC
:103E900013F076FB1DA013F005FB94F82600012813
:103EA00007D01BE0002000F03DF8E1E7FFF7E2FD5E
:103EB000DEE70D49193101F5A67002F039F9C9F8AC
:103EC0003C0095F90810C1EB0111B0EB810F05D949
:103ED0006676667284F8246084F8268084F82880E8
:103EE0001FE60000F40400208400002030060020BB
:103EF00089010020CEC2B6C8CCABB8DFC0B2A3AC3B
:103F0000B9D8B1D5C8DACBAA0D0A0000B5CECBAE70
:103F1000D6D0A3ACB9D8B1D5CBF9D3D0CAE4B3F6D7
:103F20000D0A0000064B4FF48071012805D00028CF
:103F300005D10022184602F072BF0122FAE770474D
:103F40000008014004E00021491CC9B27D29FBD3CF
:103F5000401EF8D2704700002DE9F04FDFF8909234
:103F6000E5B099F8010001287CD100210122084622
:103F700005F03EF8012005F08EF8002211461046AB
:103F800005F036F8012005F086F89A4803F063FE44
:103F900005F0FEFBC8216846FCF75BF900273D46AB
:103FA000C82132A8FCF755F900242646A346BBE0F9
:103FB000914942F6F822B9F85E000988C846514393
:103FC000B1FBF0F0FCF715FCC8F874008A488630A5
:103FD0000078012811D1894890F90B0000280CD0F5
:103FE000874A1178002908D098F82330042B05D08F
:103FF000C146032B22D0002B75D090E0012005F0A4
:1040000075F80A2002F0F8FDB8F85200FCF7F1FB51
:10401000D8F87410FCF790FC0FD8B8F8560002F0EE
:10402000EBFD022005F062F8032188F8231040F62A
:10403000B830C8F874B002F0DFFD70E04FF0010A4C
:10404000E8466D48018828F817107F1CBFB2012090
:1040500002F0D2FD642F06D005F09AFBBAF1000FF2
:10406000EFD15CE067E000221146404601E000210C
:104070000DE000EB410730F911C0B7F902309C4563
:1040800003DDA7F802C020F81130491C89B2C2F143
:1040900063038B42EDDC521C92B2632AE7D31421F6
:1040A00030F91120491C89B215445029F8D33C201D
:1040B00095FBF0F042F6F8214843B9F85E104D4602
:1040C00090FBF1F04C498631C88205F061FB85F820
:1040D00023B0C8216846FCF7BCF800273D4605F030
:1040E00057FB1CE0FFE7012819DB022917D14FF02D
:1040F000010A0DF1C8084048018828F81410641C12
:10410000A4B2012002F078FD642C17D0BAF1000FA0
:10411000F1D100BF0CF06CFE394981F800B004F019
:104120006FFE642002F068FD99F8011000297FF409
:104130003FAFA9F84CB065B0BDE8F08F0022114642
:10414000404601E000210DE000EB410430F911C0D0
:10415000B4F902309C4503DDA4F802C020F8113008
:10416000491C89B2C2F13B038B42EDDC521C92B276
:10417000632AE7D35FF0140130F91120491C89B29A
:1041800016445029F8D33C2096FBF0F042F6F82173
:104190004843B9F85E10DFF8608090FBF1F108F158
:1041A000860809F12004B8F81600081AA8F81800C3
:1041B00005F0EEFA0420E07004F81EBC0026344638
:1041C000C82132A8FCF745F8012004F08FFF40F227
:1041D000DC5002F011FD022004F088FF08F12000FD
:1041E000B8F81610C182B8F81810818292E7000062
:1041F0008400002090070020F404002062060020C4
:104200002100002070B504794379C4EB041403EB5A
:1042100084038479C3EB031304EB83040D794B7996
:10422000C5EB051503EB85038D79C3EB031305EB94
:1042300083030025156085788E78B54201D0044D42
:104240002B44884201D9E01A00E0181B106070BDB1
:104250008051010070B54FF48061154C8D004E0007
:10426000022813D0012817D0002820D1012220468F
:1042700002F0D5FD00222946204602F0D0FD0122A1
:1042800031462046BDE8704002F0C9BD00222046FC
:1042900002F0C5FD002204E00122204602F0BFFD2D
:1042A00001222946204602F0BAFD0022E8E770BD4F
:1042B0000018014070B54FF40051184C8D004E00AD
:1042C000022813D001281CD0002826D10122204624
:1042D00002F0A5FD00222946204602F0A0FD0122A1
:1042E00031462046BDE8704002F099BD00222046CC
:1042F00002F095FD00222946204602F090FD0022A2
:10430000EEE70122204602F08AFD002231462046D7
:1043100002F085FD01222946E3E770BD0018014047
:1043200010B5A02004F0AAFA18B104F073FB002025
:1043300010BD012010BD00002DE9F04115460C46CE
:10434000064604F045FBA02004F00EFB04F07CFBC5
:1043500068B9E0B204F008FB04F076FB38B904F069
:1043600037FBA12004F000FB04F06EFB20B104F049
:1043700051FB0020BDE8F08100246F1E0CE000BF5F
:1043800004F0C8FA3055BC4202D004F053FA01E000
:1043900004F0A4FA641CA4B2AC42F1D304F03AFBDA
:1043A0000120E7E72DE9F047174681460C46002536
:1043B0004FF47A782AE00DB1600717D104F02AFB98
:1043C0005FF0000604F004FBA02004F0CDFA04F036
:1043D0003BFB18B1761CB6B24645F3D346450CD02C
:1043E000E0B204F0C1FA04F02FFB30B919F805006F
:1043F00004F0BAFA04F028FB20B104F00BFB002013
:10440000BDE8F087641C6D1CA4B2ADB2BD42D2D32E
:1044100004F000FB0120F3E72DE9F84FDFF800A4DA
:104420004FF48059BAF90000411EFE4EFE4CFF4D7C
:104430004FF4806B4FF0000831297CD84946201D8D
:10444000FBF707FFFAA013F011F84FF4FA6013F02E
:1044500003FF00204FEA0B0704EB8001496846F890
:104460002010401CB842F7DB207890B1F4A1201D49
:10447000FBF7FAFE81460222F1A1FBF70EFF40B9DD
:1044800095F828004946401C85F82800EDA013F057
:1044900009F8E449F4A013F005F8211DF6A013F083
:1044A00001F8C14684F800804FF480584146201D31
:1044B000FBF7CFFE4146201DFBF7CBFEF1A012F02B
:1044C000D5FF4FF4FA6013F0C7FE002004EB800123
:1044D000496846F82010401CB842F7DB207890B1BC
:1044E000D7A1201DFBF7C0FE0222D5A10090FBF74B
:1044F000D4FE40B995F82800401C85F82800E7A0B4
:10450000009912F0CFFFC749ECA012F0CBFF211D9C
:10451000D9A012F0C7FF84F800904146201DFBF798
:1045200098FE4146201DFBF794FEE84812F09EFFDE
:104530004FF4FA6000E01BE113F08EFE5FF0000024
:1045400004EB8001496846F82010401CB842F7DBB4
:10455000207890B1BAA1201DFBF786FE8346022287
:10456000B7A1FBF79AFE40B995F828005946401CC0
:1045700085F82800D6A012F095FFAA49DCA012F019
:1045800091FF211DBCA012F08DFFCB4684F8009056
:10459000C1464146201DFBF75CFE4946201DFBF746
:1045A00058FED7A012F062FF4FF4FA6013F054FEE9
:1045B0005FF0000004EB8001496846F82010401CC1
:1045C000B842F7DB207890B19DA1201DFBF74CFE8F
:1045D000804602229AA1FBF760FE40B995F82800B8
:1045E0004146401C85F82800CAA012F05BFF8D49A7
:1045F000D0A012F057FF211D9FA012F053FFD84604
:1046000084F800B04946201DFBF723FE4946201DD3
:10461000FBF71FFECBA012F029FF4FF4FA6013F056
:104620001BFE002004EB8001496846F82010401C66
:10463000B842F7DB207890B181A1201DFBF714FE72
:10464000834602227EA1FBF728FE40B995F8280098
:104650005946401C85F82800C0A012F023FF71497C
:10466000C6A012F01FFF211D83A012F01BFFC3463E
:1046700084F80080C8464946201DFBF7EAFD414604
:10468000201DFBF7E6FDC1A012F0F0FE4FF4FA602A
:1046900013F0E2FD5FF0000004EB8001496846F88A
:1046A0002010401CB842F7DB207890B164A1201D97
:1046B000FBF7DAFD8146022261A1FBF7EEFD40B96E
:1046C00095F828004946401C85F82800B4A012F04F
:1046D000E9FE5449BAA012F0E5FE211D66A012F0D1
:1046E000E1FED94684F800B04146201DFBF7B1FD3C
:1046F0004146201DFBF7ADFDB5A012F0B7FE4FF40B
:10470000FA6013F0A9FD002004EB8001496846F827
:104710002010401CB842F7DB207888B148A1201D4A
:10472000FBF7A2FD0646022245A1FBF7B6FD38B90C
:1047300015F8280F3146401C2870A7A012F0B2FED1
:104740003849ADA012F0AEFE211D4BA012F0AAFE1A
:1047500084F8009045464146201DFBF77AFD294626
:10476000201DFBF776FD3321AAF80010BDE8F88F75
:104770002D49A0F13302132A09784FD800294ED0D1
:10478000A1A012F073FE4FF4FA6013F065FD002053
:104790004FEA0B0704EB8001496846F82010401CE3
:1047A000B842F7DB2078A0B125A1201DFBF75CFD06
:1047B0008346022222A1FBF770FD50B995F828002C
:1047C00040F26562401C85F82800594695A012F019
:1047D00069FE14499CA012F065FE211D26A012F06E
:1047E00061FE84F800804946201DFBF732FD4946F2
:1047F000201DFBF72EFD42F2107013F02DFD96A048
:1048000012F034FE4FF4FA6013F026FD5FF0000062
:1048100004EB8001496846F8201023E16DE163E173
:10482000CA000020808C0020580C002000030020CB
:1048300041542B424C45494E49543D320D0A00002B
:104840004F4B0000C0B6D1C0CFECD3A6B3C9B9A6B8
:10485000A3ACD0D0CAFD31CFECD3A661636BA3BAB1
:1048600025730D0A00000000CAE4B3F6312D2D2D8A
:1048700025730D0A00000000CAE4B3F62D2D2D2586
:10488000730D0A0041542B424C454E414D453D228B
:10489000424C455F4E57220D0A000000CFECD3A6D4
:1048A000B3C9B9A6A3ACD0D0CAFD32CFECD3A661B0
:1048B000636BA3BA25730D0A00000000CAE4B3F6C7
:1048C000322D2D2D25730D0A00000000C49E010815
:1048D000CFECD3A6B3C9B9A6A3ACD0D0CAFD33CF11
:1048E000ECD3A661636BA3BA25730D0A0000000028
:1048F000CAE4B3F6332D2D2D25730D0A00000000F8
:1049000041542B424C454741545453535256435201
:10491000450D0A00CFECD3A6B3C9B9A6A3ACD0D03D
:10492000CAFD34CFECD3A661636BA3BA25730D0A1D
:1049300000000000CAE4B3F6342D2D2D25730D0AB6
:104940000000000041542B424C45474154545353FE
:10495000525653544152540D0A000000CFECD3A6D6
:10496000B3C9B9A6A3ACD0D0CAFD35CFECD3A661EC
:10497000636BA3BA25730D0A00000000CAE4B3F606
:10498000352D2D2D25730D0A0000000041542B42BA
:104990004C4541445653544152540D0A0000000006
:1049A000CFECD3A6B3C9B9A6A3ACD0D0CAFD36CF3D
:1049B000ECD3A661636BA3BA25730D0A0000000057
:1049C000CAE4B3F6362D2D2D25730D0A0000000024
:1049D00041540D0A000000006174CFECD3A6B3C9A6
:1049E000B9A6A3ACD0D0CAFD37CFECD3A661636B18
:1049F000A3BA25730D0A00006174CAE4B3F6362D1C
:104A00002D2D25730D0A000041542B424C45535067
:104A1000504346473D312C312C372C312C350D0A73
:104A200000000000CFECD3A6B3C9B9A6A3ACD0D088
:104A3000CAFD37A3BA2564CFECD3A661636BA3BAD2
:104A400025730D0A00000000CAE4B3F6372D2D2DA2
:104A500025730D0A0000000041542B424C45535071
:104A6000500D0A00401CB842FFF6D2AE2078B0B11B
:104A7000AFF23421201DFBF7F7FB06460222AFF20E
:104A80004021FBF70AFC50B995F8280040F27A6201
:104A9000401C85F8280031462AA012F003FD324957
:104AA00032A012F0FFFC211DAFF2342012F0FAFC0C
:104AB000464684F800804F464946201DFBF7C9FB57
:104AC0003946201DFBF7C5FB95F8280085F82860BE
:104AD000052804D34721AAF8001028A000E02AA046
:104AE000BDE8F84F12F0DEBC2AA012F0DBFCBDE8F6
:104AF000F84F4FF47A7013F0AFBB47287FF436AE0F
:104B000069B1201D10F00CF984F800804E4649462A
:104B1000201DFBF79EFB31461348FBF79AFB21480B
:104B200035F8681F008800B20FF048F82888401C4C
:104B300080B225F86809C5287FF618AEA5F8688008
:104B400014E60000CFECD3A6B3C9B9A6A3ACD0D06D
:104B5000CAFD38A3BA2564CFECD3A661636BA3BAB0
:104B600025730D0A00000000808C0020CAE4B3F613
:104B7000382D2D2D25730D0A00000000C0B6D1C0C0
:104B8000B3C9B9A60D0A0000C0B6D1C0CAA7B0DC2F
:104B90000D0A0000B5C8B4FDC0B6D1C0C1ACBDD3CC
:104BA0000D0A0000F00000202DE9F04FFD488BB009
:104BB0000068642805D0C82805D0B0F5967F04D0D9
:104BC00007E0F9A102E0FAA100E0FAA1FB4812F027
:104BD00035FD0221FA4802F01DF9FA4EDFF8E883AC
:104BE0004FF00009A6F18005F0B105F12B0101F1AC
:104BF0005D0001F09DFA04467060202102A8FBF7D9
:104C000028FB0A2C73D398F80000002870D00222E9
:104C1000EEA108F10400FBF740FB002869D008F181
:104C2000040011F05FFAFAE398F80000002870D051
:104C3000E44F002417F1100757F82400FBF726FB78
:104C4000024657F8240008F10401FBF726FB306008
:104C500010B1542C7BD0F3E3542CFCD2DFE804F0E9
:104C60002A384A5A67788694A2FBF9F8F7F6F5F4E1
:104C7000F3F2F1F0EFEEEDECEBEAE9E8E7E6E5E47C
:104C8000E3E2E1E0DFDEDDDCDBDAD9D8D7D6D5D46C
:104C9000D3D2D1D0CFCECDCCCBCAC9C8C7C6C5C45C
:104CA000C3C2C1C0BFBEBDBCBBBAB9B8B7B6B5B44C
:104CB000B3B2B1B0C6A108F10400FBF7FBFAC4A17E
:104CC0000020FBF7F7FA0246BC48C2A10A303BE0DD
:104CD000BFA108F10400FBF7EDFABDA10020FBF72E
:104CE000E9FA13F057F9FBF70BFE286703E2F3E349
:104CF000F3E3F3E3B6A108F10400FBF7DBFAB4A198
:104D00000020FBF7D7FA13F045F9FBF7F9FD6867C8
:104D1000ECE7F3E3AEA108F10400FBF7CBFAACA19A
:104D20000020FBF7C7FAFBF7E7FAA887DEE7A8A1A0
:104D300008F10400FBF7BEFAA5A10020FBF7BAFAC0
:104D400002469E48A3A11E3012F078FCCEE7F5E3A0
:104D50009FA108F10400FBF7ADFA9DA10020FBF72D
:104D6000A9FA024695489BA12830EDE798A108F1E1
:104D70000400FBF79FFA96A10020FBF79BFA02467E
:104D80008E4894A13230DFE791A108F10400FBF7CF
:104D900091FA8FA10020FBF78DFA024687488DA17A
:104DA0003C30D1E78AA108F10400FBF783FA88A11F
:104DB0000020FBF77FFA0246804886A14630C3E711
:104DC000FBE3FBE3FBE3FBE3FBE3FBE3FBE3FBE3F3
:104DD000FBE3FBE3FBE3FBE3FBE3FBE3FBE3DDE301
:104DE000CDE3BDE3ABE399E389E378E365E355E322
:104DF00045E335E325E313E301E3F1E2E1E2D1E248
:104E0000C1E2B1E29FE28FE27DE26DE25DE24CE25F
:104E10003BE22AE219E208E2F7E1E6E1D5E1C5E189
:104E2000B5E1A5E195E185E175E165E154E143E195
:104E300032E121E110E1FFE0EEE0DDE0CCE0A3E0D3
:104E400094E085E076E067E058E049E03AE02BE066
:104E50001DE00EE0FFE75EA108F10400FBF72AFA6F
:104E60005BA10020FBF726FA0246544859A15030B6
:104E70006AE757A108F10400FBF71CFA54A10020CF
:104E8000FBF718FAFBF738FAA5F840002EE750A117
:104E900008F10400FBF70EFA4DA10020FBF70AFA17
:104EA000FBF72AFAE88721E749A108F10400FBF79C
:104EB00001FA47A10020FBF7FDF9FBF71DFAA5F861
:104EC000420013E742A108F10400FBF7F3F940A107
:104ED0000020FBF7EFF9FBF70FFAA5F8440005E710
:104EE0003BA108F10400FBF7E5F939A10020FBF72D
:104EF000E1F9FBF701FAA5F84600F7E634A108F15D
:104F00000400FBF7D7F932A10020FBF7D3F9FBF738
:104F1000F3F9A5F84800EEE02DA108F10400FBF735
:104F2000C9F92BA10020FBF7C5F9FBF7E5F9A5F8B6
:104F30004A00E0E026A108F10400FBF7BBF924A138
:104F40000020FBF7B7F9FBF7D7F9A5F84C00D2E042
:104F50001FA108F10400FBF7ADF91DA10020FBF72C
:104F6000A9F9FBF7C9F9A5F84E00C4E018A108F1AA
:104F70000400FBF79FF916A10020FBF79BF9FBF754
:104F8000BBF9A5F85000B6E011A108F10400FBF749
:104F900091F90FA10020FBF78DF9FBF7ADF9A5F80A
:104FA0005200A8E0F0000020536D616C6C0000001E
:104FB0004D6964004C61726765000000809C0020B0
:104FC0000014014080030020601C00206F6B000073
:104FD0003A00000025730000AFF20C0108F1040054
:104FE000FBF768F9AFF218010020FBF763F9FBF754
:104FF00083F9A5F85400D6E3AFF22C0108F10400C0
:10500000FBF758F9AFF238010020FBF753F9FBF733
:1050100073F9A5F85600C6E3AFF24C0108F104009D
:10502000FBF748F9AFF258010020FBF743F9FBF713
:1050300063F9A5F85800B6E3AFF26C0108F104007B
:10504000FBF738F9AFF278010020FBF733F9FBF7F3
:1050500053F9A5F85A00A6E3AFF28C0108F1040059
:10506000FBF728F9AFF298010020FBF723F9FBF7D3
:1050700043F9A5F85C0096E3AFF2AC0108F1040037
:10508000FBF718F9AFF2B8010020FBF713F9FBF7B3
:1050900033F9A5F85E0086E3AFF2CC0108F1040015
:1050A000FBF708F9AFF2D8010020FBF703F9FBF793
:1050B00023F9A5F8600076E3AFF2EC0108F10400F3
:1050C000FBF7F8F8AFF2F8010020FBF7F3F8FBF775
:1050D00013F9A5F8620066E3AFF20C1108F10400C1
:1050E000FBF7E8F8AFF218110020FBF7E3F8FBF745
:1050F00003F9A5F8640056E3AFF22C1108F104009F
:10510000FBF7D8F8AFF238110020FBF7D3F8FBF724
:10511000F3F8687747E3AFF2481108F10400FBF7B2
:10512000C9F8AFF254110020FBF7C4F8FBF7E4F81C
:10513000A87738E3AFF2681108F10400FBF7BAF87A
:10514000AFF274110020FBF7B5F8FBF7D5F8A8868D
:1051500029E3AFF2841108F10400FBF7ABF8AFF2DA
:1051600090110020FBF7A6F8FBF7C6F8E8861AE3D3
:10517000AFF2A41108F10400FBF79CF8AFF2B011F4
:105180000020FBF797F8FBF7B7F828870BE3AFF29F
:10519000C01108F10400FBF78DF8AFF2CC1100202C
:1051A000FBF788F8FBF7A8F86887FCE2AFF2E0119C
:1051B00008F10400FBF77EF8AFF2EC110020FBF7DA
:1051C00079F8FBF799F8E877EDE2AFF2FC1108F116
:1051D0000400FBF76FF8AFF208210020FBF76AF834
:1051E000FBF78AF885F82000DDE2AFF21C2108F118
:1051F0000400FBF75FF8AFF228210020FBF75AF814
:10520000FBF77AF885F82100CDE2AFF23C2108F1F6
:105210000400FBF74FF8AFF248210020FBF74AF8F3
:10522000FBF76AF885F82200BDE2AFF25C2108F1D5
:105230000400FBF73FF8AFF268210020FBF73AF8D3
:10524000FBF75AF885F82300ADE2AFF27C2108F1B4
:105250000400FBF72FF8AFF288210020FBF72AF8B3
:10526000FBF74AF885F824009DE2AFF29C2108F193
:105270000400FBF71FF8AFF2A8210020FBF71AF893
:10528000FBF73AF885F825008DE2AFF2BC2108F172
:105290000400FBF70FF8AFF2C8210020FBF70AF873
:1052A000FBF72AF885F826007DE2AFF2DC2108F151
:1052B0000400FAF7FFFFAFF2E8210020FAF7FAFF47
:1052C000FBF71AF885F827006DE2AFF2FC2108F130
:1052D0000400FAF7EFFFAFF208310020FAF7EAFF17
:1052E000FBF70AF8A8855EE2AFF21C3108F1040072
:1052F000FAF7E0FFAFF228310020FAF7DBFFFAF708
:10530000FBFF28704FE2AFF2383108F10400FAF7E2
:10531000D1FFAFF244310020FAF7CCFF12F03AFE91
:10532000FBF7EEFAA8673EE2AFF25C3108F1040049
:10533000FAF7C0FFAFF268310020FAF7BBFFFAF7C7
:10534000DBFF68702FE2AFF2783108F10400FAF762
:10535000B1FFAFF284310020FAF7ACFF12F01AFE71
:10536000FBF7CEFAE8671EE2AFF29C3108F10400C9
:10537000FAF7A0FFAFF2A8310020FAF79BFFFAF787
:10538000BBFFA8700FE2AFF2B83108F10400FAF7E2
:1053900091FFAFF2C4310020FAF78CFFFAF7ACFFAF
:1053A000E87000E2AFF2D83108F10400FAF782FFAA
:1053B000AFF2E4310020FAF77DFFFAF79DFF287184
:1053C000F1E1AFF2F43108F10400FAF773FFAFF244
:1053D00000410020FAF76EFFFAF78EFF6871E2E1F4
:1053E000AFF2144108F10400FAF764FFAFF2204174
:1053F0000020FAF75FFFFAF77FFFE885D3E1AFF20D
:10540000304108F10400FAF755FFAFF23C410020AB
:10541000FAF750FFFAF770FFA5F86A00C3E1EDE173
:10542000AFF2544108F10400FAF744FFAFF26041D3
:105430000020FAF73FFFFAF75FFFA5F86C00B2E132
:10544000BDE1AFF2744108F10400FAF733FFAFF2A7
:1054500080410020FAF72EFFFAF74EFFA871A2E173
:10546000AFF2944108F10400FAF724FFAFF2A04133
:105470000020FAF71FFFFAF73FFFE87193E1AFF260
:10548000B04108F10400FAF715FFAFF2BC4100206B
:10549000FAF710FFFAF730FF287284E1AFF2D0413B
:1054A00008F10400FAF706FFAFF2DC410020FAF73A
:1054B00001FFFAF721FF687275E1AFF2EC4108F1E4
:1054C0000400FAF7F7FEAFF2F8410020FAF7F2FE17
:1054D000FAF712FFA87266E17EE195E184E1AFF28E
:1054E000105108F10400FAF7E5FEAFF21C5100205C
:1054F000FAF7E0FEFAF700FFE87254E16FE1AFF26D
:10550000305108F10400FAF7D5FEAFF23C5100200B
:10551000FAF7D0FEFAF7F0FE287344E1AFF25051EB
:1055200008F10400FAF7C6FEAFF25C510020FAF76A
:10553000C1FE0246AFF26451F14805E439E1AFF231
:10554000705108F10400FAF7B5FEAFF27C5100206B
:10555000FAF7B0FE0246AFF28451E9481E3004E487
:10556000AFF2945108F10400FAF7A4FEAFF2A05193
:105570000020FAF79FFEFAF7BFFE687313E1AFF25F
:10558000B05108F10400FAF795FEAFF2BC510020CB
:10559000FAF790FEFAF7B0FE288604E1AFF2D05198
:1055A00008F10400FAF786FEAFF2DC510020FAF7AA
:1055B00081FEFAF7A1FEA873F5E0E6E0D2E0C2E0D2
:1055C000B2E0A2E092E082E06FE05FE04FE03FE017
:1055D0002FE01FE00FE0FFE7AFF20C6108F10400DD
:1055E000FAF768FEAFF218610020FAF763FEFAF7E7
:1055F00083FEE873D7E0AFF2286108F10400FAF700
:1056000059FEAFF234610020FAF754FEFAF774FE47
:105610002874C8E0AFF2486108F10400FAF74AFEC6
:10562000AFF254610020FAF745FEFAF765FE6874A0
:10563000B9E0AFF2646108F10400FAF73BFEAFF2A3
:1056400070610020FAF736FEFAF756FEA874AAE059
:10565000AFF2846108F10400FAF72CFEAFF290611A
:105660000020FAF727FEFAF747FEE8749BE0AFF256
:10567000A06108F10400FAF71DFEAFF2AC61002052
:10568000FAF718FEFAF738FE28758CE0AFF2C06121
:1056900008F10400FAF70EFEAFF2CC610020FAF731
:1056A00009FEFAF729FE68757DE0AFF2DC6108F1CA
:1056B0000400FAF7FFFDAFF2E8610020FAF7FAFD07
:1056C000FAF71AFEA875AFF2FC6011F091FEAFF286
:1056D000007108F10400FAF7EDFDAFF20C71002043
:1056E000FAF7E8FDFAF708FEE8755CE0AFF2207122
:1056F00008F10400FAF7DEFDAFF22C710020FAF792
:10570000D9FDFAF7F9FD28764DE0AFF23C7108F1CA
:105710000400FAF7CFFDAFF248710020FAF7CAFD96
:10572000FAF7EAFD68863EE0AFF25C7108F104002A
:10573000FAF7C0FDAFF268710020FAF7BBFDFAF787
:10574000DBFD68762FE0AFF2787108F10400FAF71C
:10575000B1FDAFF284710020FAF7ACFDFAF7CCFD91
:10576000A87620E0AFF2987108F10400FAF7A2FDE4
:10577000AFF2A4710020FAF79DFDFAF7BDFDE876BF
:10578000AFF2B87011F034FE19E0AFF2BC7108F15D
:105790000400FAF78FFDAFF2C8710020FAF78AFD16
:1057A000FAF7AAFD2877AFF2DC7011F021FE54243D
:1057B00005E04FF4806108F10400FAF74AFD641C2B
:1057C000E4B2542CFFF438AA4FF4806108F10400CD
:1057D000FAF73FFD88F800900BB0BDE8F08F0BB0F2
:1057E000BDE8F04FFEF718BEB5F86600401C80B269
:1057F000A5F86600532801D9A5F866904FF480619A
:1058000008F10400FAF725FDB5F866403D4F3E4B20
:105810003E483F49DFF8FC90DFF8FCA03F4EDFF840
:1058200000C1DFF800B1DFF800E1404A542C65D236
:10583000DFE804F02A4F525AF1F0EFEEEDECEBEA1C
:10584000E9E8E7E6E5E4E3E2E1E0DFDEDDDCDBDA40
:10585000D9D8D7D6D5D4D3D2D1D0CFCECDCCCBCA30
:10586000C9C8C7C6C5C4C3C2C1C0BFBEBDBCBBBA20
:10587000B9B8B7B6B5B4B3B2B1B0AFAEADACABAA10
:10588000A9A8A7A6A5A4A3A2387A0028507814D066
:1058900008B1274813E09178264816E0FBF704F892
:1058A000CDE90001224624A1C5E000BFFAF7FCFFC4
:1058B000CDE90001224623A1BDE020B124482246C3
:1058C00024A10368E3E19178254800290068EDD11F
:1058D000E4E7B3F90230B3E05868FAF7E5FFCDE941
:1058E000000122461FA1A6E0214A64231268642A0F
:1058F00005D0C82A3ED0B2F5967F3CD0DBE08BE0E5
:105900007C8B0020E4050020B40500204406002024
:105910009A050020000801407A050020C4050020F7
:10592000300600209001002096010020890100200F
:1059300010010020040100206125643A252E316603
:10594000204300006125643A252E30662043000084
:105950000C0100206125643A256420460000000007
:10596000080100206125643A252E31660000000000
:10597000F000002052E062E084E17FE178E173E131
:105980006EE16AE166E162E15DE159E155E151E113
:105990004BE147E143E13FE13BE137E130E12AE11F
:1059A00024E120E11CE118E112E10EE10AE105E148
:1059B00002E1FEE0FAE0F6E0F2E0EEE0E5E0DFE052
:1059C000DCE0D8E0D4E0D1E0CEE0CAE0C7E0C4E05B
:1059D000BFE0BCE0B8E0B4E0B1E0AEE0ABE0A8E02E
:1059E000A5E0A2E09CE098E094E090E08DE08AE001
:1059F00087E084E081E07EE079E076E073E070E0CB
:105A00006DE06AE067E064E060E05DE046E03EE0B3
:105A100035E02DE01FE01AE0C07D00E0807D898A3E
:105A20004843B0FBF3F0FAF7E4FEFAF73DFFCDE9A7
:105A30000001224697A102A811F000FE3BE08B8AEC
:105A4000224697A123E100BF11F0F8FD33E0964B09
:105A5000224696A11BE14FF4005196480AE000BF90
:105A6000B5F8662094A123E0B5F8662095A11FE063
:105A70000821484601F0CEF90028F5D1F0E74FF4AF
:105A80008061484601F0C6F90028EDD1E8E74FF4FF
:105A9000007105E08EA10BE08FA109E04FF4807149
:105AA000484601F0B7F9B5F866200028F4D0F1E7D0
:105AB00002A811F0C3FD02A97DA011F099FC4FF4DA
:105AC000FA7012F0C9FB87E6864800E08648037842
:105AD0000EE08648FBE78648F9E78648F7E74B88FB
